{
  "address": "0x14Af83c39fde9e08a4F30307150f5F8F222e0249",
  "abi": [
    {
      "anonymous": false,
      "inputs": [
        {
          "indexed": true,
          "internalType": "address",
          "name": "from",
          "type": "address"
        },
        {
          "indexed": true,
          "internalType": "address",
          "name": "to",
          "type": "address"
        },
        {
          "indexed": true,
          "internalType": "address",
          "name": "asset",
          "type": "address"
        },
        {
          "indexed": false,
          "internalType": "uint256",
          "name": "amount",
          "type": "uint256"
        },
        {
          "indexed": false,
          "internalType": "string",
          "name": "message",
          "type": "string"
        }
      ],
      "name": "Donation",
      "type": "event"
    },
    {
      "anonymous": false,
      "inputs": [
        {
          "indexed": true,
          "internalType": "address",
          "name": "from",
          "type": "address"
        },
        {
          "indexed": true,
          "internalType": "address",
          "name": "to",
          "type": "address"
        },
        {
          "indexed": false,
          "internalType": "uint256",
          "name": "amount",
          "type": "uint256"
        },
        {
          "indexed": false,
          "internalType": "string",
          "name": "message",
          "type": "string"
        }
      ],
      "name": "DonationNative",
      "type": "event"
    },
    {
      "stateMutability": "payable",
      "type": "fallback"
    },
    {
      "inputs": [
        {
          "internalType": "address",
          "name": "to",
          "type": "address"
        },
        {
          "internalType": "address",
          "name": "asset",
          "type": "address"
        },
        {
          "internalType": "uint256",
          "name": "amount",
          "type": "uint256"
        },
        {
          "internalType": "string",
          "name": "message",
          "type": "string"
        }
      ],
      "name": "donate",
      "outputs": [],
      "stateMutability": "nonpayable",
      "type": "function"
    }
  ],
  "transactionHash": "0xf09cf21e27ac373fe2cb2d493ba96487cf50bc5e0fbc1d66c57832f5379af6e3",
  "args": [],
  "solcInputHash": "9b7cac05f3663119a33b74e0095615ea",
  "bytecode": "0x608060405234801561001057600080fd5b50610450806100206000396000f3fe60806040526004361061001e5760003560e01c80632581e80a14610123575b6000606061002c36836102b2565b604051919350915060009081906001600160a01b0385169034908381818185875af1925050503d806000811461007e576040519150601f19603f3d011682016040523d82523d6000602084013e610083565b606091505b5091509150816100d05760405162461bcd60e51b81526020600482015260146024820152732330b4b632b2103a379039b2b7321022ba3432b960611b604482015260640160405180910390fd5b836001600160a01b0316336001600160a01b03167f35e1acfc45a9a383a9ed191ec8132ceeeb190956baf5a15d3ceebcf589af6fce3486604051610115929190610391565b60405180910390a350505050005b34801561012f57600080fd5b5061014361013e366004610300565b610145565b005b6040516323b872dd60e01b81523360048201526001600160a01b038581166024830152604482018490528416906323b872dd90606401602060405180830381600087803b15801561019557600080fd5b505af11580156101a9573d6000803e3d6000fd5b505050506040513d601f19601f820116820180604052508101906101cd919061036a565b50826001600160a01b0316846001600160a01b0316336001600160a01b03167f76ee9885bdf7ab07c9dcd36eec76aae99cf9115049855ef70b3c5674f8acf58a858560405161021d929190610391565b60405180910390a450505050565b600082601f83011261023b578081fd5b813567ffffffffffffffff80821115610256576102566103ec565b604051601f8301601f19908116603f0116810190828211818310171561027e5761027e6103ec565b81604052838152866020858801011115610296578485fd5b8360208701602083013792830160200193909352509392505050565b600080604083850312156102c4578182fd5b82356102cf81610402565b9150602083013567ffffffffffffffff8111156102ea578182fd5b6102f68582860161022b565b9150509250929050565b60008060008060808587031215610315578182fd5b843561032081610402565b9350602085013561033081610402565b925060408501359150606085013567ffffffffffffffff811115610352578182fd5b61035e8782880161022b565b91505092959194509250565b60006020828403121561037b578081fd5b8151801515811461038a578182fd5b9392505050565b828152600060206040818401528351806040850152825b818110156103c4578581018301518582016060015282016103a8565b818111156103d55783606083870101525b50601f01601f191692909201606001949350505050565b634e487b7160e01b600052604160045260246000fd5b6001600160a01b038116811461041757600080fd5b5056fea2646970667358221220347b39ac2bdbbf1e56263c85602bb9b1a40a7b7388a8592d75088f44629e959d64736f6c63430008040033",
  "devdoc": {
    "kind": "dev",
    "methods": {},
    "version": 1
  },
  "userdoc": {
    "kind": "user",
    "methods": {},
    "version": 1
  },
  "storageLayout": {
    "storage": [],
    "types": null
  }
}